:020000040800F2
:10000000900D00209D010008692B0008AD29000813
:10001000652B00080D080008C93300080000000027
:10002000000000000000000000000000A72B0008F6
:100030009D0A000800000000A52B0008C92B00083D
:10004000B7010008B7010008B7010008B7010008B0
:10005000B7010008B7010008B7010008B7010008A0
:10006000B7010008B7010008B7010008B701000890
:10007000B7010008B7010008B7010008B701000880
:10008000B7010008B7010008B7010008B701000870
:1000900069080008B7010008B7010008B7010008A7
:1000A000B7010008B7010008B7010008B701000850
:1000B000192D0008B7010008B7010008B7010008B2
:1000C000B7010008B7010008B7010008B701000830
:1000D000B7010008B9330008B7010008B7010008EC
:1000E000B7010008B7010008B7010008B701000810
:1000F000B7010008B7010008B7010008B701000800
:10010000B7010008B7010008B7010008B7010008EF
:10011000B7010008B7010008B7010008B7010008DF
:10012000B7010008B7010008B7010008B7010008CF
:10013000B7010008B7010008B7010008B7010008BF
:10014000B7010008B7010008B7010008B7010008AF
:10015000B7010008B7010008B7010008B70100089F
:10016000B7010008B7010008B7010008B70100088F
:10017000B7010008B7010008B7010008000000003F
:10018000B7010008B7010008DFF80CD000F01CFB35
:1001900000480047B53C0008900D00200648804705
:1001A00006480047FEE7FEE7FEE7FEE7FEE7FEE75C
:1001B000FEE7FEE7FEE7FEE7B52C00088901000830
:1001C00040EA01039B0703D009E008C9121F08C0D9
:1001D000042AFAD203E011F8013B00F8013B521E59
:1001E000F9D27047421C10F8011B0029FBD1801A7C
:1001F00070472DE9FE4F804681EA0300C00F0C4690
:10020000009021F0004123F00045B8EB0200A94125
:1002100005D24046214690461C460B46024623F036
:100220000040104347D0270DC7F30A00C3F30A511B
:100230000290401A019040286BDAC3F3130040F497
:10024000801B0098924620B10023D2EB030A63EB97
:100250000B0B01985946C0F14002504600F065F979
:1002600006460D4650465946019A00F06DF910EBCE
:1002700008006141002487EA115284EAE7731A43B7
:1002800040D0009A62B3019A012A4FEA075215DC66
:10029000001B61EB02014FF0004202EA0752CDE978
:1002A0000042001C41F5801132462B4600F0A2F9B5
:1002B00003B0BDE8F08F40462146F9E7001B61EB33
:1002C0000201001C41F5801300185B412018A2F5C3
:1002D000001747EB030140EAD570B6196D4111E0F4
:1002E0006D084FEA360645EAC0754FEA0752001B13
:1002F00061EB0201001C41F5801149084FEA300012
:100300000019514132462B4603B0BDE8F04F00F0D2
:1003100064B90098012240000023D0EB020263EB95
:10032000E073009821464FEAE074B8EB000061EBFF
:100330000401E9E783F000435BE781F0004158E7FF
:100340002DE9FE4F81EA030404F0004421F000414E
:1003500000944FF0000B23F0004350EA01045ED0FC
:1003600052EA03045BD0C3F30A54C1F30A552C4488
:10037000A4F2F3340194A0FB0254C1F3130141F43D
:100380008011C3F3130343F4801301FB024400FB09
:10039000034E840A970A44EA815447EA8357A4FB30
:1003A000076802958D0A05FB07854FEA932C04FB2D
:1003B0000C542705029D4FEA065847EA1637B5EB5D
:1003C00008056EEB070C870E920E47EA811742EA8A
:1003D0008312A7FB0201B6EB0B0164EB00042B0DAB
:1003E00043EA0C335E1844EB1C50DA465146E7FBF7
:1003F0000201C5F313044FEA0B3343EA14534FEAE7
:100400000432019C43EA0603A4F10C040294009C0C
:10041000CDE900B400F0EEF803B0BDE8F08F0020A5
:100420000146F9E70EB540F2334102910021CDE9D2
:1004300000110A460B4600F0DDF803B000BD00F0E5
:10044000004230F000400AD0C10D01F56071C0F3E8
:10045000160042EA0151C2084007114370470020CC
:100460000146704701F0004330B421F0004150EAEA
:10047000010206D00A0DA2F56072C1F31301002A31
:1004800002DC30BC00207047440F44EAC104C100C4
:10049000E01830BC00EBC25000F068B830B50B4635
:1004A000014600202022012409E021FA02F59D42A4
:1004B00005D303FA02F5491B04FA02F52844151E78
:1004C000A2F10102F1DC30BD2DE9F05F054600200C
:1004D00092469B4688460646814640241BE02846B5
:1004E00041464746224600F081F953465A46C01A13
:1004F000914110D311461846224600F016F82D1AE5
:1005000067EB01084F4622460120002100F00DF85C
:1005100017EB00094E41201EA4F10104DFDC484620
:1005200031462A464346BDE8F09F202A04DB203AA4
:1005300000FA02F1002070479140C2F1200320FA36
:1005400003F3194390407047202A06DBCB17203A6B
:1005500041FA02F043EAE07306E041FA02F3D040C8
:10056000C2F1200291400843194670470029A8BFF4
:100570007047401C490008BF20F00100704710B4CC
:10058000B0FA80FC00FA0CF050EA010404BF10BC81
:10059000704749B1CCF1200421FA04F411FA0CF1AE
:1005A00018BF012121430843A3EB0C01CB1D4FEAE7
:1005B00000614FEA102042BF002010BC704700EBE2
:1005C000C35010440029A4BF10BC7047401C490010
:1005D00008BF20F0010010BC704710B5002B08DAEE
:1005E000401C41F1000192185B411A4301D120F0F7
:1005F000010010BD2DE9F04D92469B4611B1B1FAB4
:1006000081F202E0B0FA80F220329046FFF78DFFCF
:1006100004460F4640EA0A0041EA0B0153465A4697
:10062000084313D0114653EA010019D0C8F1400223
:10063000504600F0DBF805460E4650465946424605
:10064000FFF773FF084305D0012004E02046394638
:10065000BDE8F08D0020054346EAE0762C433743A1
:100660000A986305E40AA0EB08000022FD0A44EAA8
:1006700047540A3002D500200146E9E70105101968
:100680006941DDE9084500196941BDE8F04DA4E77D
:100690002DE9F04D81EA030404F0004B21F0004500
:1006A00014464FF0000A23F0004150EA050220D022
:1006B00054EA01021DD0C5F30A570246C5F31303DD
:1006C000C1F31300C1F30A5640F4801543F48013BC
:1006D000A7EB0608101BD64608F2FD3873EB0500A1
:1006E00002D308F1010801E092185B41B8F1000F54
:1006F00003DA00200146BDE8F08D00204FF48011A0
:10070000064684460EE0171B73EB050705D3121B44
:1007100063EB050306434CEA010C49084FEA30003D
:1007200092185B4150EA0107EDD152EA030012D062
:1007300082EA040083EA0501084305D0101BAB419F
:1007400006D20122002306E000224FF0004302E01F
:100750006FF0010253101AEB06004CEB085110EB3E
:100760000A0041EB0B01BDE8F04DFFF736BFC1F3C6
:100770000A52C1F3130140F2FF3341F480119A424F
:1007800002DA00200146704740F233439A42A2F257
:10079000334202DC524200F029B8FFF7C6BE000027
:1007A00030B5002904DB4FF00044404264EB010106
:1007B000002B04DB4FF00044524264EB03039942E8
:1007C00008BF904230BD0000064C074D06E0E068CF
:1007D00040F0010394E8070098471034AC42F6D388
:1007E000FFF7D6FC6843000888430008202A04DB92
:1007F000203A21FA02F00021704721FA02F3D0409A
:10080000C2F12002914008431946704700BFFEE73D
:1008100000B58BB04FF4FE6001904FF42040029081
:100820004FF4FE600390002004900E200A900020F8
:1008300005900690079001200890099001A90548AD
:1008400000F04AF920B14FF4A67103A002F0BEFDFA
:100850000BB000BD4C0000202E2E2F5372632F6D65
:1008600061696E2E6300000010B5024800F0BAF90D
:1008700010BD00004C0000202DE9F04104460D465B
:10088000002700260DB9666B00E0A66B206800F516
:10089000D87000EB0510006800F00400B060B0688C
:1008A00058B9206800F5D87000EB0510006840F2D8
:1008B000FF7101EA505030600AE0206800F5D870FE
:1008C00000EB051000686FF0604101EAD000706035
:1008D000206800F5D87000EB0510006800F00200F9
:1008E000F060206800F5D87000EB0510406800F05B
:1008F0000F0030613562206800F5D87000EB0510FC
:100900004068C0F30720F061206800F5D87000EB64
:10091000051080683075206800F5D87000EB051070
:100920008068010A7175206800F5D87000EB051029
:100930008068010CB175206800F5D87000EB0510D7
:100940008068000EF075206800F5D87000EB051087
:10095000C0683076206800F5D87000EB0510C068DC
:10096000010A7176206800F5D87000EB0510C068A8
:10097000010CB176206800F5D87000EB0510C06856
:10098000000EF0764DB920202168C86020684069CB
:1009900020F00A002168486108E0202021680861F1
:1009A0002068406920F050002168486194F83C704C
:1009B000222F01D0322F05D12068406920F40F404A
:1009C00021684861CDB994F83C00422804D06228DF
:1009D00006D072280CD107E0122084F83C000BE00E
:1009E000322084F83C0007E0522084F83C0003E009
:1009F000012084F83C0000BF19E094F83C00522824
:100A000004D0622806D072280CD107E0122084F8A6
:100A10003C000BE0222084F83C0007E0422084F8F0
:100A20003C0003E0012084F83C0000BF00BF2046EA
:100A300000F0A0FB0020BDE8F08110B5044620685E
:100A4000406920F001002168486194F83C001228B8
:100A500005D12068406920F40F402168486194F86E
:100A60003C00422804D0522806D072280CD107E05E
:100A7000222084F83C000BE0322084F83C0007E0A0
:100A8000622084F83C0003E0012084F83C0000BFB1
:100A900000BF204600F03AFC002010BD7047000067
:100AA00010B50122D1030B4800F054FD4FF4FA6059
:100AB00000F041FC00224FF40041064800F04AFDDE
:100AC0004FF4FA6000F037FC0122D103014800F036
:100AD00041FD10BD0010024070B504460A460023D7
:100AE000157D012000FA05F33C4901F50071086805
:100AF00040F001000860086820F47C500860086835
:100B0000556A40EA05200860C8699843C861A1F5A4
:100B10000071D069C8B9D1F80C029843C1F80C0231
:100B2000908880B2958940EA054501F510705669B4
:100B300040F83650108880B2158940EA054501F525
:100B40001070566900EBC6004560D069012819D1C4
:100B5000D1F80C021843C1F80C02908880B21588B5
:100B600040EA054501F51070566940F83650908905
:100B700080B2158940EA054501F51070566900EB11
:100B8000C6004560906928B9D1F804029843C1F8BD
:100B9000040204E0D1F804021843C1F80402106909
:100BA00020B9D1F814029843C1F814021069012841
:100BB00004D1D1F814021843C1F81402106A0128B4
:100BC00004D1D1F81C021843C1F81C02D1F800026C
:100BD00020F00100C1F80002002070BD0064004058
:100BE000704700002DE9F04104460025002600274B
:100BF000A8462068C068C0F3001520684069C0F3AB
:100C0000C0062DB126B148F4007810202168C860D4
:100C100020680069C0F3001520684069C0F38016A1
:100C20002DB126B148F48068102021680861206841
:100C3000406900F0010000283BD0206880687C49B2
:100C40000840884201D1012000E0002005462068CC
:100C5000806878490840884201D1012000E00020E6
:100C600006462068806874490840884201D1012006
:100C700000E0002007460DB906B9D7B120688068AA
:100C8000C0F3400520688068C0F340262068806873
:100C9000C0F340470DB906B91FB12046FFF7CDFE9E
:100CA00001E048F4006820688068644908432168CE
:100CB00088602068C06800F0030520684069C0F3C0
:100CC000400625B11EB100212046FFF7D5FD206862
:100CD000006900F0030520684069C0F3001625B1E3
:100CE0001EB101212046FFF7C7FD206C40EA080035
:100CF00020642068806900F0010520684069C0F325
:100D0000002620684069C0F3C0372DB126B11FB15D
:100D1000206C40F00100206420688069C0F3400529
:100D200020684069C0F3402620684069C0F3C0379E
:100D30002DB126B11FB1206C40F002002064206864
:100D40008069C0F3800520684069C0F38026206870
:100D50004069C0F3C0372DB126B11FB1206C40F0FF
:100D6000040020642068806900F0700008B9012048
:100D700000E00020054620684069C0F3C0262068D6
:100D80004069C0F3C03795BB8EB387B320688069D4
:100D900000F07005402D1BD006DC102D09D0202D51
:100DA0000CD0302D24D10EE0502D16D0602D1FD147
:100DB00018E0206C40F0080020641AE0206C40F03D
:100DC0001000206415E0206C40F02000206410E04A
:100DD000206C40F0400020640BE0206C40F080006C
:100DE000206406E0206C40F48070206401E007E09D
:100DF00000BF00BF2068806920F070002168886112
:100E0000206C98B1042021684860012084F83C00DF
:100E10002068406948F65B71884321684861204634
:100E2000FFF7DEFE0021204600F01EF9BDE8F0814C
:100E3000030000040003000800000310190501006E
:100E400070B50446002600250CB9012070BD94F849
:100E50003C0028B9002084F83D00204600F0CEF880
:100E6000022084F83C002068006820F0020021681D
:100E700008602068006840F001002168086000F008
:100E80006FFB05460EE000F06BFB401B0A2809D9FA
:100E9000032084F83C0000BF002084F83D0000BF20
:100EA0000320D3E72068406800F001000028EAD062
:100EB0002068406800F00100002875D0A069012872
:100EC00006D12068006840F080002168086005E0D5
:100ED0002068006820F0800021680860E06901282F
:100EE00006D12068006840F040002168086005E0F5
:100EF0002068006820F0400021680860206A01280E
:100F000006D12068006840F020002168086005E0F4
:100F10002068006820F0200021680860606A0128CD
:100F200006D12068006840F010002168086005E0E4
:100F30002068006820F0100021680860A06A01287D
:100F400006D12068006840F008002168086005E0CC
:100F50002068006820F0080021680860E06A012825
:100F600006D12068006840F004002168086005E0B0
:100F70002068006820F0040021680860D4E90201BC
:100F8000084321690843616908436168491E0843B1
:100F90002168C8612068006820F0010021680860AD
:100FA00000F0DEFA05460FE01AE000F0D9FA401B27
:100FB0000A2809D9032084F83C0000BF002084F8E7
:100FC0003D0000BF032041E72068406800F00100B9
:100FD0000028EAD12068406800F0010000B901262D
:100FE000012E06D100202064012084F83C0000205E
:100FF0002CE7042084F83C00012027E710B586B0D8
:10100000044616492068884226D100BF002000907F
:101010001348006840F000701149086008460068F5
:1010200000F00070009000BF00BF4FF4C05001906E
:1010300002200290002003900320049009200590D4
:1010400001A9084800F086F900221146142000F09A
:10105000FFFA142000F0EFFA06B010BD0064004063
:101060004038024000000240024689B992F83C0034
:1010700022280BD092F83C00422807D092F83C007E
:10108000622803D092F83C00722801D102207047F8
:10109000012911D192F83C0032280BD092F83C0083
:1010A000522807D092F83C00622803D092F83C0006
:1010B000722801D10220EAE700BF92F83D00012822
:1010C00001D10220E3E7012082F83D0000BFC9B949
:1010D00092F83C00122804D0322806D052280CD1B5
:1010E00007E0422082F83C000BE0622082F83C00DE
:1010F00007E0722082F83C0003E0222082F83C00E6
:1011000000BF19E092F83C00122804D0222806D033
:1011100042280CD107E0522082F83C000BE062200C
:1011200082F83C0007E0722082F83C0003E03220A5
:1011300082F83C0000BF00BF0020106410684069C6
:1011400048F6017318431368586100BF002082F805
:101150003D0000BF31B91068406940F00A001368D3
:10116000586105E01068406940F05000136858610C
:1011700000208CE770B52DED068B05460024534802
:101180000078E8BB5248406B4068524988423BD1E6
:101190004F48406B017D4E48406B007DC0F300100E
:1011A00001EB400000F00F044948406B407D000116
:1011B000494921F814004649496B897DC1EB012258
:1011C0004349496BC97D114408B2C11700EB516115
:1011D000C9118039414A22F814103D48406B817E84
:1011E0003B48406B407E41EA00203D4921F8140015
:1011F0003748406B007E3B4921F81400002100E095
:1012000002E03348FFF730FF3148406B4068364911
:10121000884258D135480078002854D12C49496B70
:10122000487DFFF7FFF841EC1A0B9FED310B53ECB3
:10123000102BFFF785F841EC190B9FED2F0B53ECAA
:10124000102BFFF777F841EC180BFFF70BF92C493F
:1012500008601F49496B887DFFF7E4F841EC1A0BE1
:101260009FED230B53EC102BFFF76AF841EC190BA1
:101270009FED210B53EC102BFFF75CF841EC180BA2
:10128000FFF7F0F81F4908601149496BC87DFFF767
:10129000C9F841EC1A0B9FED160B53EC102BFFF71E
:1012A0004FF841EC190B9FED140B53EC102BFFF78B
:1012B00041F841EC180BFFF7D5F8134908600021FD
:1012C0000348FFF7D1FEBDEC068B70BD090000207E
:1012D0004C000020D8F4FE18100000201C00002054
:1012E0002800002040090020D8E0FE180800002057
:1012F0007B14AE47E17A943F0000000000000440F8
:1013000034000020380000203C00002070470146D7
:1013100091F83500022803D08020486501207047ED
:10132000052081F835000868006820F001000A688F
:1013300010600020F3E731B500F012F90546009C7B
:10134000601C00B1641C00BF00F00AF9401BA04201
:10135000FAD338BDF8B502460B460025002400201C
:101360000021DCE0012606FA01F51E6806EA050404
:10137000AC4273D15E68022E02D05E68122E13D189
:10138000CF0802F1200656F827004E07F70E0F2669
:10139000BE40B0434F07FF0E1E69BE403043CF082A
:1013A00002F1200646F8270010684F000326BE40D1
:1013B000B0431E7906F003064F00BE403043106074
:1013C0005E68012E08D05E68022E05D05E68112E80
:1013D00002D05E68122E13D190684F000326BE40E3
:1013E000B0434F00DE68BE40304390605068012635
:1013F0008E40B0431E79C6F300168E4030435060D5
:10140000D0684F000326BE40B0434F009E68BE40E8
:101410003043D0605E6806F08056B6F1805F7DD1C3
:1014200000BF00260096404E366846F480463E4F88
:101430003E603E46366806F48046009600BF00BF18
:101440003A4E8F0856F827008E07370F0F26BE40FA
:10145000B043374EB24202D1002624E05EE0354E62
:10146000B24201D101261EE0334EB24201D1022622
:1014700019E0324EB24201D1032614E0304EB2429E
:1014800001D104260FE02F4EB24201D105260AE019
:101490002D4EB24201D1062605E02C4EB24201D1BA
:1014A000072600E008268F073F0FBE4030431F4E3F
:1014B0008F0846F82700264E3068A0435E6806F481
:1014C0008036B6F5803F00D12043214E3060361D76
:1014D0003068A0435E6806F40036B6F5003F00D1E0
:1014E00020431B4E361D3060361D3068A0435E68B9
:1014F00006F48016B6F5801F00D12043144E08363E
:101500003060361D3068A0435E6806F40016B6F5FC
:10151000001F00D120430E4E0C363060491C1029AC
:10152000FFF420AFF8BD0000443802400838014005
:10153000000002400004024000080240000C02408B
:10154000001002400014024000180240001C02403B
:10155000003C01400AB1816101E00B0483617047E6
:1015600001480068704700004400002002480068FD
:10157000401C0149086070474400002010B50D4828
:10158000006840F400700B4908600846006840F4A9
:10159000806008600846006840F48070086003209E
:1015A00000F094F8002000F007F800F019F800208F
:1015B00010BD0000003C024070B5044607480068BA
:1015C0004FF47A71B0FBF1F5284600F042FC00229E
:1015D0002146501E00F03CF8002070BD480000205D
:1015E00010B5032000F072F8002211466FF00B00D6
:1015F00000F02EF8002211466FF00A0000F028F8E3
:10160000002211466FF0090000F022F80022114676
:10161000501F00F01DF800221146101F00F018F8AE
:1016200000221146901E00F013F800221146501EB1
:1016300000F00EF810BD00BF00F01F020121914024
:101640004209920002F1E022C2F8001100BF704787
:101650002DE9F05F80460D461646002701F086FA18
:10166000074639462A46334601F00700C0F1070A0B
:10167000BAF1040F02D94FF0040A01E0C0F1070AE1
:10168000D14600F1040ABAF1070F02D24FF0000A66
:1016900001E0A0F1030AD4464FF0010A0AFA09FA60
:1016A000AAF1010A0AEA020A0AFA0CFA4FF0010B3F
:1016B0000BFA0CFBABF1010B0BEA030B4AEA0B0430
:1016C0002146404601F05AFABDE8F09F00BF00F005
:1016D0000702064B19684FF6FF031940044B0B43F2
:1016E00043EA0221014B196000BF70470CED00E096
:1016F0000000FA0570B504460D4600266D480068E6
:1017000000F00F00A84209D26A490D70084600682F
:1017100000F00F00A84201D0012070BD207800F039
:101720000200022807D16448006820F0F000A16898
:10173000084361490860207800F00100002877D054
:101740006068012807D15C4808380068C0F3404051
:10175000B8B90120E1E76068022802D06068032878
:1017600007D1554808380068C0F3406048B90120E7
:10177000D3E7514808380068C0F3400008B9012099
:10178000CBE74D48006820F00300616808434A49F0
:101790000860FFF7E5FE06466068012810D108E002
:1017A000FFF7DEFE801B41F28831884201D9032019
:1017B000B3E74148006800F00C000428F0D137E09E
:1017C0006068022810D108E0FFF7CAFE801B41F2D2
:1017D0008831884201D903209FE73748006800F02C
:1017E0000C000828F0D123E06068032810D108E03D
:1017F000FFF7B6FE801B41F28831884201D90320F1
:101800008BE72D48006800F00C000C28F0D10FE0A9
:1018100008E0FFF7A5FE801B41F28831884201D91C
:1018200003207AE72448006800F00C000028F0D17B
:101830002048006800F00F00A84209D91D490D702A
:101840000846006800F00F00A84201D0012064E7BC
:10185000207800F00400042807D11748006820F41D
:10186000E050E168084314490860207800F008005F
:10187000082808D11048006820F46040216940EA37
:10188000C1000D49086000F04FF80B49096801F0EC
:10189000F001F02292FAA2F2B2FA82F2D140074AA3
:1018A000515CC840064908600020FFF785FE002013
:1018B00033E70000003C0240083802407C42000848
:1018C00048000020014800687047000048000020E0
:1018D00000B5FFF7F7FF0749096801F4E0514FF43D
:1018E000E05292FAA2F2B2FA82F2D140024A515C7C
:1018F000C84000BD083802408C42000800B5FFF720
:10190000E1FF0749096801F460414FF4604292FA2F
:10191000A2F2B2FA82F2D140024A515CC84000BD44
:10192000083802408C42000870B5002100220023D4
:101930000020274C246804F00C0424B1042C04D0AB
:10194000082C41D103E0234840E023483EE0204CEE
:10195000241F246804F03F011D4C241F246804F454
:10196000800484B11C4CB4FBF1F5194C241F24688D
:1019700047F6C076344096FAA6F6B6FA86F6F440F4
:1019800005FB04F20FE0134CB4FBF1F5104C241FDF
:10199000246847F6C076344096FAA6F6B6FA86F67C
:1019A000F44005FB04F20A4C241F246804F440347C
:1019B0004FF4403595FAA5F5B5FA85F5EC40641C71
:1019C0006300B2FBF3F001E0024800BF00BF70BD4E
:1019D000083802400024F40000127A0038B50446AA
:1019E0000025207800F00100002874D0F748006836
:1019F00000F00C0004280DD0F448006800F00C0042
:101A0000082813D1F148001F006800F48000B0F5E9
:101A1000800F0BD1ED4808380068C0F34040002823
:101A200059D06068002856D1012038BD00BF6068D9
:101A3000B0F5803F08D1E5480838006840F48030B0
:101A4000E249083908601EE06068B0F5A02F0DD1AA
:101A5000DE480838006840F48020DC490839086016
:101A60000846006840F4803008600CE0D748083829
:101A7000006820F48030D5490839086008460068BD
:101A800020F48020086000BF606890B1FFF768FD17
:101A9000054606E0FFF764FD401B642801D90320DA
:101AA000C3E7CA4808380068C0F340400028F1D0B6
:101AB00011E0FFF755FD054606E0FFF751FD401B1D
:101AC000642801D90320B0E7C04808380068C0F393
:101AD00040400028F1D1207800F00200022869D1AE
:101AE000BA48006800F00C0058B1B848006800F02F
:101AF0000C00082821D1B548001F006800F48000C0
:101B0000D8B9B24808380068C0F3400020B1E06896
:101B1000012801D0012088E7AC480838006820F08F
:101B2000F800F82292FAA2F2B2FA82F22169914008
:101B30000843A649083908603CE0E06828B3012062
:101B4000A3490860FFF70CFD054606E0FFF708FD16
:101B5000401B022801D9032067E79C480838006829
:101B6000C0F340000028F1D098480838006820F001
:101B7000F800F82292FAA2F2B2FA82F221699140B8
:101B8000084392490839086014E000209049086031
:101B9000FFF7E6FC054606E0FFF7E2FC401B0228E3
:101BA00001D9032041E7894808380068C0F34000A4
:101BB0000028F1D1207800F0080008282CD16069B5
:101BC000A8B1012083490860FFF7CAFC054606E07A
:101BD000FFF7C6FC401B022801D9032025E77B48FC
:101BE0006C300068C0F340000028F1D014E0002001
:101BF00078490860FFF7B4FC054606E0FFF7B0FC43
:101C0000401B022801D903200FE770486C300068A0
:101C1000C0F340000028F1D1207800F0040004282F
:101C20007FD100BF0020009068483830006840F045
:101C300080506649383108600846006800F08050DE
:101C4000009000BF00BF6448006840F480706249A3
:101C50000860FFF785FC054606E0FFF781FC401BA6
:101C6000022801D90320E0E65B48006800F4807098
:101C70000028F2D000BFA068012808D1534868307E
:101C8000006840F001005149683108601DE0A0681B
:101C900005280DD14D486830006840F004004B49DC
:101CA000683108600846006840F0010008600CE0F8
:101CB00046486830006820F00100444968310860F7
:101CC0000846006820F00400086000BFA068A0B1CA
:101CD000FFF746FC054608E0FFF742FC401B41F2D7
:101CE0008831884201D903209FE63848683000686F
:101CF000C0F340000028EFD013E0FFF731FC0546A9
:101D000008E0FFF72DFC401B41F28831884201D9E1
:101D100003208AE62D4868300068C0F340000028A0
:101D2000EFD1A069F0B32948006800F00C00082842
:101D300071D0A069022858D1002025490866FFF714
:101D40000FFC054606E0FFF70BFC401B022801D9FB
:101D500003206AE61D4808380068C0F34060002888
:101D6000F1D1D4E90701084347F6C07292FAA2F212
:101D7000B2FA82F2616A914008430122A16AC2EB81
:101D800051014FF4403292FAA2F2B2FA82F291403B
:101D900008434FF0706292FAA2F2B2FA82F2E16A5C
:101DA000914000E039E008430849091F086001201C
:101DB00007490866FFF7D4FB05460FE0FFF7D0FBA5
:101DC000401B02280AD903202FE6000008380240F1
:101DD00000004742800E47420070004010480068F3
:101DE000C0F340600028E9D017E000200D490866E4
:101DF000FFF7B6FB054606E0FFF7B2FB401B0228E3
:101E000001D9032011E606480068C0F340600028AD
:101E1000F2D102E0FFE7012007E6002005E600001E
:101E20000038024000004742042808D14FF0E0216A
:101E3000096941F004014FF0E022116107E04FF021
:101E4000E021096921F004014FF0E022116170479F
:101E5000704770B504462546681EB0F1807F01D3F7
:101E600001200FE0681E4FF0E02148610F214FF084
:101E7000FF3000F083FE00204FF0E0218861072052
:101E80000861002070BD10B5FFF7E2FF10BD70477C
:101E90007047024600BF92F83800012801D10220A5
:101EA0007047012082F8380000BF022082F8390014
:101EB0001068406820F0700013685860106840682F
:101EC0000B681843136858601068806820F0800021
:101ED00013689860106880684B68184313689860AE
:101EE000012082F8390000BF002082F8380000BFCE
:101EF00000BFD5E710B504460CB9012010BD94F819
:101F0000390028B9002084F83800204600F00CF889
:101F1000022084F83900211D206800F005FF01200F
:101F200084F839000020E9E738B504462068B0F1AC
:101F3000804F17D100BF002000900B48006840F090
:101F40000100094908600846006800F0010000909F
:101F500000BF00BF002201211C20FFF779FB1C20DD
:101F6000FFF769FB38BD00004038024001460868B1
:101F7000C06840F001000A68D0600868006840F05E
:101F800001000A6810600020704701460868C068B8
:101F900020F001000A68D06000BF0868006A41F2C2
:101FA0001112104050B90868006A9210104028B908
:101FB0000868006820F001000A68106000BF002077
:101FC00070472DE9F04104460D46002600BF94F805
:101FD0003800012802D10220BDE8F081012084F8F8
:101FE000380000BF022084F839002068866826F097
:101FF000770626F47F4620688660286850283BD004
:102000000CDC202860D004DC002853D0102865D1D7
:1020100055E030285DD0402860D141E0602835D0BF
:1020200070280DD0B0F5805F03D0B0F5005F55D1BA
:1020300015E02068806820F00700216888604EE085
:10204000D5E902136A68206800F0E0FE206886681F
:1020500026F0770646F07706206886603FE0D5E9EF
:1020600002136A68206800F0D1FE2068806840F49E
:1020700080402168886032E0EA686968206800F082
:10208000DBFE5021206800F0CDFE28E0EA68696898
:10209000206800F0E6FE6021206800F0C3FE1EE02C
:1020A000EA686968206800F0C7FE4021206800F0F7
:1020B000B9FE14E00021206800F0B4FE0FE010210A
:1020C000206800F0AFFE0AE02021206800F0AAFEA0
:1020D00005E03021206800F0A5FE00E000BF00BF51
:1020E000012084F8390000BF002084F8380000BFC8
:1020F00000BF71E7704710B5044620680069C0F35F
:102100004000D8B12068C068C0F34000B0B16FF0A3
:10211000020021680861012020762068806900F0B3
:10212000030018B12046FFF7E5FF05E0204600F068
:10213000ADF8204600F0ABF800202076206800695A
:10214000C0F38000D8B12068C068C0F38000B0B18F
:102150006FF0040021680861022020762068806901
:1021600000F4407018B12046FFF7C4FF05E0204698
:1021700000F08CF8204600F08AF8002020762068D5
:102180000069C0F3C000D8B12068C068C0F3C000C7
:10219000B0B16FF008002168086104202076206843
:1021A000C06900F0030018B12046FFF7A3FF05E067
:1021B000204600F06BF8204600F069F800202076F9
:1021C00020680069C0F30010D8B12068C068C0F36F
:1021D0000010B0B16FF0100021680861082020766F
:1021E0002068C06900F4407018B12046FFF782FFF4
:1021F00005E0204600F04AF8204600F048F80020AC
:1022000020762068006900F0010058B12068C0689D
:1022100000F0010030B16FF0010021680861204634
:1022200000F036F820680069C0F3C01058B120688B
:10223000C068C0F3C01030B16FF080002168086141
:102240002046FFF724FE20680069C0F3801058B1D3
:102250002068C068C0F3801030B16FF04000216882
:102260000861204600F01CF820680069C0F34010A7
:1022700058B12068C068C0F3401030B16FF0200042
:10228000216808612046FFF703FE10BD70477047C4
:1022900002490968491C014A116070470400002086
:1022A000704770472DE9F0470446206805682068AC
:1022B000C668206847694FF00008C14605F00F085E
:1022C000B8F1000F0AD105F0200038B106F0200067
:1022D00020B1204600F005FEBDE8F087B8F1000F00
:1022E0006DD007F0010018B906F49070002866D090
:1022F00005F0010030B106F4807018B1E06B40F0D9
:102300000100E06305F0040030B107F0010018B1EE
:10231000E06B40F00200E06305F0020030B107F02E
:10232000010018B1E06B40F00400E06305F0080024
:1023300030B107F0010018B1E06B40F00800E06335
:10234000E06B68B305F0200028B106F0200010B162
:10235000204600F0C6FD20684069C0F38019E06B9C
:1023600000F0080010B9B9F1000F22D0204600F0AB
:1023700098FD2068406900F04000B0B120684069D5
:1023800020F0400021684861606B50B11748616BD4
:102390000865606BFEF7BBFF10B1606B016D88478D
:1023A0000CE02046FFF77DFF08E02046FFF779FFAD
:1023B00004E02046FFF775FF0020E0638CE705F09E
:1023C000800030B106F0800018B1204600F08AFF8E
:1023D00082E705F0400030B106F0400018B1204619
:1023E00000F06FFD78E700BF76E700008F2E000851
:1023F00010B504460CB9012010BDA06900B100E081
:1024000000BF94F8390028B9002084F8380020462D
:1024100000F028F8242084F839002068C06820F4EF
:1024200000502168C860204600F0A8FD20680069BF
:1024300020F49040216808612068406920F02A005B
:10244000216848612068C06840F400502168C86075
:102450000020E063202084F8390084F83A0000204E
:10246000CAE7000010B586B00446164920688842C5
:1024700026D100BF002000901348006840F01000F3
:10248000114908600846006800F01000009000BF85
:1024900000BF4FF4C0600190022002900120039021
:1024A000032004900720059001A90848FEF752FF79
:1024B000002211462520FFF7CBF82520FFF7BBF8B7
:1024C00006B010BD00100140443802400000024038
:1024D0002DE9F84304460D4616461F464FF0000905
:1024E00094F83A00202860D105B116B90120BDE862
:1024F000F88300BF94F83800012801D10220F6E7E4
:10250000012084F8380000BF0020E063222084F816
:102510003A00FFF725F88146A685E68539E0E08D8B
:10252000401EE085A068B0F5805F1BD14B460022BD
:1025300020212046009700F009FF08B10320D6E7CC
:10254000A846206938B920684068C0F30800A8F898
:102550000000AD1C1DE020684068C0B2A8F8000073
:102560006D1C16E04B46002220212046009700F00B
:10257000EDFE08B10320BAE7206920B92068406861
:1025800005F8010B05E02068406800F07F0005F8C1
:10259000010BE08D0028C2D1202084F83A0000BF52
:1025A000002084F8380000BFA1E702209FE77047B1
:1025B0002DE9F84304460D4616461F464FF0000924
:1025C00094F8390020285CD105B116B90120BDE886
:1025D000F88300BF94F83800012801D10220F6E703
:1025E000012084F8380000BF0020E063212084F837
:1025F0003900FEF7B5FF8146A684E6842BE0E08C27
:10260000401EE084A068B0F5805F16D14B460022E2
:1026100080212046009700F099FE08B10320D6E7FC
:10262000A846B8F80000C0F3080021684860206997
:1026300008B9AD1C0FE06D1C0DE04B460022802157
:102640002046009700F082FE08B10320BFE715F88E
:10265000010B21684860E08C0028D0D14B46002255
:1026600040212046009700F071FE08B10320AEE73C
:10267000202084F8390000BF002084F8380000BF13
:10268000A5E70220A3E7704710B5CCB077A17B483F
:1026900000F08AFA4FF4FA63202279497748FFF76D
:1026A00017FF4FF4FA60FEF746FE76A1734800F07C
:1026B0007BFA4FF4FA63202271497048FFF708FF54
:1026C0004FF4FA60FEF737FE76A16C4800F06CFA22
:1026D0004FF4FA6320226A496848FFF7F9FE4FF485
:1026E000FA60FEF728FE77A1644800F05DFA4FF427
:1026F000FA63202262496148FFF7EAFE4FF4FA606C
:10270000FEF719FE73A15D4800F04EFA4FF4FA632C
:1027100040225B495948FFF7DBFE4FF4FA60FEF7B1
:102720000AFE70A1554800F03FFA4FF4FA632022E8
:1027300053495248FFF7CCFE4FF4FA60FEF7FBFD19
:102740006CA14E4800F030FA4FF4FA6320224C4955
:102750004A48FFF7BDFE4FF4FA60FEF7ECFD6B4907
:10276000464800F021FA4FF4FA63202244494348D6
:10277000FFF7AEFE4FF4FA60FEF7DDFD64A13F48BF
:1027800000F012FA4FF4FA6320223D493B48FFF76C
:102790009FFE4FF4FA60FEF7CEFDC82267491AA8E3
:1027A000FDF70EFD6648FDF71DFD044665A02346B6
:1027B00067A26BA1009001A800F00AFE01A92F48B2
:1027C00000F0F2F94FF4FA6340222D492B48FFF74D
:1027D0007FFE4FF4FA60FEF7AEFD5949274800F03E
:1027E000E3F94FF4FA63202225492448FFF770FEED
:1027F0004FF4FA60FEF79FFD5BA1204800F0D4F98A
:102800004FF4FA6320221E491C48FFF761FE4FF483
:10281000FA60FEF790FD58A1184800F0C5F94FF492
:10282000FA63202216491548FFF752FE4FF4FA606A
:10283000FEF781FD55A1114800F0B6F94FF4FA6397
:1028400020220F490D48FFF743FE4FF4FA60FEF7D0
:1028500072FD52A1094800F0A7F94FF4FA63202253
:1028600007490648FFF734FE4CB010BD41542B43D6
:10287000474154543D310D0A0000000090000020F3
:102880000009002041542B53415042523D332C311A
:102890002C22436F6E74797065222C22475052535C
:1028A000220D0A0041542B53415042523D332C31EA
:1028B0002C2241504E222C22434D4E4554220D0ACB
:1028C0000000000041542B53415042523D312C3105
:1028D0000D0A000041542B53415042523D322C31DD
:1028E0000D0A000041542B48545450494E49540D90
:1028F0000A00000041542B48545450504152413D6D
:1029000022434944222C310D0A0000009442000861
:1029100041542B48545450504152413D22434F4E54
:1029200054454E54222C226170706C696361746945
:102930006F6E2F6A736F6E220D0A0000B44100089B
:102940000C0100202C31303030300D0A0000000026
:1029500041542B48545450444154413D0000000020
:10296000257325642573000041542B48545450535B
:10297000534C3D310D0A000041542B4854545041F2
:102980004354494F4E3D310D0A00000041542B483D
:102990005454505445524D0D0A00000041542B53DD
:1029A000415042523D302C310D0A000000BFFEE77D
:1029B00010B51C481C4908631C4848631C48086043
:1029C00006204860002118488160C1604FF4A021B2
:1029D00001614FF4C001416100218161C161016267
:1029E00041628162C16200200F49096B0860114891
:1029F0000D49096B486000200B49096BC860042031
:102A00000949096B886008200749096B0861064875
:102A1000FEF716FA20B140F2371107A000F0D6FCFD
:102A200010BD0000700900204C0000204C0900205F
:102A300000640040D7F4FE182E2E2F5372632F6DC2
:102A400061696E2E6300000000B587B000BF0020F2
:102A500001901C48006840F080001A490860084650
:102A6000006800F08000019000BF00BF00BF0020A0
:102A700001900846006840F00100086008460068C0
:102A800000F00100019000BF00BF00BF00200190D6
:102A90000846006840F0100008600846006800F032
:102AA0001000019000BF00BF4FF4004002900120D1
:102AB00003900020059002A90348FEF74BFC07B0E5
:102AC00000BD0000303802400010024000B587B061
:102AD0004FF080400F49086042F2CF00486000216B
:102AE0000C48816042F20F71C16000210161FFF763
:102AF00001FA4FF48050039003A90648FFF761FAEA
:102B000000200190029001A90248FFF7C2F907B026
:102B100000BD0000D000002010B50C480C49086032
:102B20004FF4E1304860002109488160C1600161D3
:102B30000C21416100218161C161FFF759FC20B185
:102B400040F2E31103A000F041FC10BD0010014071
:102B5000900000202E2E2F5372632F6D61696E2E10
:102B60006300000000BFFEE77047000002480068F5
:102B7000C0F30220704700000CED00E010B5002803
:102B800007DA0A07140E054A00F00F031B1FD4547E
:102B900003E00A07130E024A135410BD18ED00E0BB
:102BA00000E400E07047704770B505460C462046CB
:102BB000FDF718FB401C86B24FF47A73324621466B
:102BC0002846FFF7F5FC70BD10B5FEF7CFFCFFF708
:102BD0005AF910BD10B592B000BF002000902F48E8
:102BE000006840F080502D4908600846006800F0F9
:102BF0008050009000BF00BF00BF00200090284818
:102C0000006840F48040264908600846006800F4E7
:102C10008040009000BF00BF012006900004079094
:102C200002200C9041050D9104210E91A8210F91D5
:102C3000022110910421119106A8FEF7CFFE18B1D0
:102C4000FE2118A000F0C2FB0F200190022002908C
:102C5000002003904FF4A05004904FF48050059052
:102C6000052101A8FEF746FD20B14FF486710DA0A5
:102C700000F0ACFBFEF726FE4FF47A71B0FBF1F4E6
:102C80002046FFF7E6F80420FFF7CEF800221146B1
:102C9000501EFEF7DDFC12B010BD000040380240AF
:102CA000007000402E2E2F5372632F6D61696E2EBF
:102CB000630000001448006840F470001249086086
:102CC0001248006840F001001049086000200F49D8
:102CD000083108600D4800680D4908400B4908603C
:102CE0000C48091D0860081F006820F48020091F97
:102CF0000860002005490C3108604FF0006002496F
:102D0000803908607047000088ED00E0003802401C
:102D1000FFFFF6FE1030002410B50248FFF7EBF974
:102D200010BD0000D0000020002202682C4B984209
:102D30000ED0B0F1804F0BD02A4B984208D02A4BCE
:102D4000984205D0294B984202D0294B984201D194
:102D5000012300E000231BB122F070024B681A43EC
:102D60001F4B984220D0B0F1804F1DD01D4B984290
:102D70001AD01D4B984217D01C4B984214D01C4BB4
:102D8000984211D01B4B98420ED01B4B98420BD04F
:102D90001A4B984208D01A4B984205D0194B9842CA
:102DA00002D0194B984201D1012300E000231BB14E
:102DB00022F44072CB681A4302608B68C3620B68CE
:102DC0008362074B984202D0094B984201D10123FC
:102DD00000E000230BB10B690363012343617047DB
:102DE000000001400004004000080040000C0040CA
:102DF00000040140004001400044014000480140FF
:102E000000180040001C00400020004030B50C4677
:102E10000021816821F47F4142EA032525432943AB
:102E2000816030BD0A460021816821F0700142F0C6
:102E3000070319438160704730B50B4614460021E3
:102E40000022026A056A25F001050562816921F008
:102E5000F00141EA041122F00A021A438161026280
:102E600030BD30B50B46144600210022056A25F01E
:102E7000100505628169026A21F4704141EA04315A
:102E800022F0A00242EA03128161026230BD70B5F5
:102E90000546AC6B0020E085E0842046FFF701FA90
:102EA00070BD0168C96821F490710268D160016841
:102EB000496921F0010102685161202180F83A102E
:102EC000704710B504462068C06820F040002168B3
:102ED000C860202084F839002046FFF7D4FB00208A
:102EE00010BD70B5044694F83A00222844D1A06879
:102EF000B0F5805F13D1A56A206940B920684068A9
:102F0000C0F308002880A06A801CA06219E0206835
:102F10004068C0B22880A06A401CA06211E020690D
:102F200038B920684068C1B2A26A501CA062117012
:102F300007E02068406800F07F01A26A501CA06290
:102F40001170E08D401E80B2E08598B92068C0689D
:102F500020F490702168C8602068406920F001006A
:102F600021684861202084F83A002046FFF71FFBC3
:102F7000002070BD0020FCE70220FAE72DE9F041B7
:102F8000044600252068056925F44055E06805439E
:102F9000206805612068C56849F20C608543216995
:102FA000A068084361690843E16908430543206854
:102FB000C5602068456925F44075A069054320680F
:102FC0004561E069B0F5004F7ED1C4492068884270
:102FD00003D0C349206888425DD1FEF78FFC00EB27
:102FE000C00101EB001061684900B0FBF1F0642101
:102FF000B0FBF1F00601FEF781FC00EBC00101EB34
:10300000001061684900B0FBF1F7FEF777FC00EBB8
:10301000C00101EB001061684900B0FBF1F06421D0
:10302000B0FBF1F000EBC00101EB0010A7EB80005A
:10303000322101EBC0006421B0FBF1F000F0F80098
:1030400006EB4006FEF75AFC00EBC00101EB001056
:1030500061684900B0FBF1F7FEF750FC00EBC001DE
:1030600001EB001061684900B0FBF1F06421B0FB96
:10307000F1F000EBC00101EB0010A7EB8000322162
:1030800001EBC0006421B0FBF1F000F00700304418
:103090002168886020E1FEF71BFC00EBC00101EB1A
:1030A000001061684900B0FBF1F06421B0FBF1F061
:1030B0000601FEF70DFC00EBC00101EB001061689A
:1030C0004900B0FBF1F700E045E0FEF701FC00EB42
:1030D000C00101EB001061684900B0FBF1F0642110
:1030E000B0FBF1F000EBC00101EB0010A7EB80009A
:1030F000322101EBC0006421B0FBF1F000F0F800D8
:1031000006EB4006FEF7E4FB00EBC00101EB00100C
:1031100061684900B0FBF1F7FEF7DAFB00EBC00194
:1031200001EB001061684900B0FBF1F06421B0FBD5
:10313000F1F000EBC00101EB0010A7EB80003221A1
:1031400001EBC0006421B0FBF1F000F00700304457
:1031500021688860C0E061492068884203D06049E6
:10316000206888425CD1FEF7C9FB00EBC00101EB8F
:10317000001061688900B0FBF1F6FEF7BFFB00EBC1
:10318000C00101EB001061688900B0FBF1F064211F
:10319000B0FBF1F000EBC00101EB0010A6EB8000EA
:1031A000322101EB00106421B0FBF1F000F0F006D9
:1031B000FEF7A4FB00EBC00101EB00106168890081
:1031C000B0FBF1F06421B0FBF1F006EB0016FEF766
:1031D00095FB00EBC00101EB001061688900B0FBBA
:1031E000F1F7FEF78BFB00EBC00101EB001061680B
:1031F0008900B0FBF1F06421B0FBF1F000EBC001FD
:1032000001EB0010A7EB8000322101EB00106421DC
:10321000B0FBF1F000F00F003044216888605BE003
:10322000FEF756FB00EBC00101EB0010616889005E
:10323000B0FBF1F6FEF74CFB00EBC00101EB001018
:1032400061688900B0FBF1F06421B0FBF1F000EBA4
:10325000C00101EB0010A6EB8000322101EB001051
:103260006421B0FBF1F000F0F006FEF731FB00EB5B
:10327000C00101EB001061688900B0FBF1F064212E
:10328000B0FBF1F006EB0016FEF722FB00EBC001ED
:1032900001EB001061688900B0FBF1F7FEF718FB45
:1032A00000EBC00101EB001061688900B0FBF1F098
:1032B0006421B0FBF1F000EBC00101EB0010A7EBC3
:1032C0008000322101EB00106421B0FBF1F000F02E
:1032D0000F00304421688860BDE8F0810010014093
:1032E00000140140014691F8390021282CD188684A
:1032F000B0F5805F0FD10A6A1088C0F308000B6830
:103300005860086918B9086A801C086209E0086AF0
:10331000401C086205E00B6A581C086218780B68AC
:103320005860C88C401E80B2C88458B90868C0680C
:1033300020F080000B68D8600868C06840F040004A
:103340000B68D860002070470220FCE72DE9F041AF
:1033500004460D4617469846069E21E0701CF8B1BB
:103360002EB1FEF7FDF8A0EB0800B04218D9206896
:10337000C06820F4D0702168C8602068406920F0DF
:10338000010021684861202084F8390084F83A005F
:1033900000BF002084F8380000BF0320BDE8F081A2
:1033A000206800682840A84201D1012000E00020E8
:1033B000B842D3D00020F1E710B50248FEF772FF03
:1033C00010BD00009000002000BFFEE700BFFEE738
:1033D0000FB4084B10B504A902AA039800F0CEF868
:1033E000044602A9002000F060FC204610BC5DF8F5
:1033F00014FB0000AB3C000802E008C8121F08C123
:10340000002AFAD170477047002001E001C1121F65
:10341000002AFBD1704700002DE9FF5FDDE90220A3
:10342000010DDDF838B0024318D044F61050A1F277
:10343000FF3141430D140F98012820D0A5EB0B005C
:10344000401C5FEA000A4FF00004474EDFF81C9171
:10345000A046504616D5CAF1000728E00F9801246F
:1034600043A2012808D0002100980F9BC0E9002149
:10347000C0E90243BDE8FF9F6FEA0B01F4E7CBF11F
:103480000000DEE7074612E0F80707D02246334681
:1034900040464946FCF754FF80468946224633465B
:1034A00010461946FCF74CFF04460E467F10002FCD
:1034B000EAD1DDE90201BAF1000F42464B4602DAD9
:1034C000FCF73EFF01E0FDF7E3F804460E4600225C
:1034D000284BFDF765F903D84FF0FF30014607E0B0
:1034E0000022254B20463146FCF783FEFDF73FF9CD
:1034F000102409E0002C0ADB0A220023FCF7E4FF79
:10350000019B30321A55641E50EA0102F2D1641C4C
:10351000019AC4F1110314440F9A012A03D0012225
:1035200008430DD10AE0084304D000204FF0110BEE
:103530000F9080E7A3EB0B056D1E0DE05B4504DDEE
:103540004FF0000205F1010504E003DA4FF000023C
:10355000A5F10105002AECD000980F99C0E90231CD
:10356000C0E9004586E70000000024400000F03F6D
:10357000300000000000F0430000E03F2DE9FF4F65
:1035800095B09B468946064600250FE2252877D14F
:1035900000242746F84A0121059400E0044316F868
:1035A000013F203B01FA03F01042F7D130782A287E
:1035B00011D06FF02F033078A0F13002092A16D80D
:1035C000059A44F0020402EB820203EB420210442B
:1035D000761C0590EFE759F8042B0592002A03DAD0
:1035E000504244F40054059044F00204761C3078B4
:1035F0002E2816D116F8010F44F004042A280DD005
:103600006FF02F023078A0F13003092B09D807EBB7
:10361000870302EB4303C718761CF3E759F8047BD2
:10362000761C30786C280FD006DC4C2817D0682820
:103630000DD06A2814D104E0742810D07A280FD154
:103640000DE044F400140AE044F4801401E044F472
:1036500040147278824202D104F58014761C761CE4
:10366000307866280BD013DC582877D009DC002886
:1036700075D04528F6D04628F4D047281AD19DE1C8
:1036800018E0632835D0642879D0652812D195E1F7
:10369000702873D008DC6728F1D069286FD06E28B5
:1036A0000DD06F2806D1B5E073282CD0752875D0C1
:1036B000782874D05A46179990476D1C75E1C4F369
:1036C0000250022809D003280DD0D9F80010042890
:1036D0000DD00D6009F1040967E1D9F80010EA176F
:1036E000C1E90052F6E7D9F800100D80F2E70D703D
:1036F000F0E719F8041B8DF8001000208DF8010088
:10370000EA46012003E059F804AB4FF0FF306107AF
:103710004FF0000102D40DE008F101018846B942E2
:103720000FDA8045F8DB1AF808100029F4D108E018
:1037300008F1010188468142FADB1AF808100029D5
:10374000F6D105985B46A0EB080721463846179A44
:1037500000F094FA284400EB080507E04DE029E169
:103760000DE01AF8010B5A4617999047B8F1010875
:10377000F7D25B4621463846179A13E142E00A2207
:103780000092C4F302524FF0000A022A08D059F8FE
:1037900004CB032A4FEAEC710AD00DE029E02AE0BD
:1037A00009F1070121F00702F2E802C1914609E0A0
:1037B0000FFA8CFC4FEAEC71042A03D14FFA8CFC0F
:1037C0004FEAEC71002907DA0A460021DCF1000C0F
:1037D00061EB02012D2202E0220504D52B228DF897
:1037E0000420012203E0E20701D02022F7E79046FF
:1037F00059E00A2102E010220DE010214FF0000AEA
:1038000000910BE010224FF0000A44F00404082756
:10381000009203E008224FF0000A0092C4F3025223
:10382000022A05D059F804CB0021032A08D009E068
:1038300009F1070121F00702F2E802C1914605E013
:103840001FFA8CFC042A01D10CF0FF0C4FF0000889
:10385000220728D5702806D0009B83F0100353EA76
:103860000A0305D00EE040228DF80420012208E072
:103870005CEA010206D030228DF804208DF80500A4
:1038800002229046009B83F0080353EA0A030AD100
:103890005CEA010201D1620705D530228DF80420CF
:1038A0004FF001087F1E582804D034A003900EA8C2
:1038B00002900DE036A0F9E753466046009AFCF707
:1038C00003FE84460398825C0298401E02900270B8
:1038D0005CEA0100F0D1029806A9081A00F1200A5A
:1038E000600702D524F4803400E00127574502DD4B
:1038F000A7EB0A0000E0002000EB0A010090059809
:103900004144401A0590E00306D45B462146179ACD
:10391000059800F0B3F90544002706E001A85A46CF
:10392000C05D179990476D1C7F1C4745F6DBE0038F
:103930000CD55B462146179A059800F09FF905447F
:1039400004E030205A46179990476D1C0099481E94
:1039500000900029F5DC08E0029802995A460078A8
:10396000491C0291179990476D1CBAF10001AAF108
:10397000010AF1DC65E10000092801003031323331
:10398000343536373839616263646566000000009B
:103990003031323334353637383941424344454685
:1039A0000000000000F058F90544761C307800282B
:1039B0007FF4ECAD19B02846BDE8F08F620700D463
:1039C000062709F1070222F0070CFCE80223E14672
:1039D00003F000485FEA080C02D00FF2702C0DE0F3
:1039E0005FEA045C02D50FF2682C07E05FEAC47C52
:1039F00002D00FF2602C01E0AFF2700C4FF0FF38F4
:103A000023F00043CDF850C065280CD006DC4528D3
:103A100009D046281DD047283DD13DE0662818D062
:103A200067287ED138E00021112F01DB112000E052
:103A3000781CCDE9000106A90EA8FFF7EDFCDDE931
:103A40000F010E9A03910021009207F1010A0491DF
:103A50004DE04FF000400097CDE9011006A90EA8F7
:103A6000FFF7DAFCDDE90F0203920E9B11990022A9
:103A7000DDF80CA00093049211B9791C00EB010A47
:103A8000B7EB0A0004D4C0F1FF3007F1010A04903B
:103A9000AAEB0700019044E0012F00DA0127002182
:103AA000112F01DD112000E03846CDE9000106A903
:103AB0000EA8FFF7B1FCDDE90F010E9A039100217A
:103AC00004910092BA4621070CD40399514500DABB
:103AD0008A46BAF1010F05DD009AAAF10101515C95
:103AE000302908D0B84202DA10F1040F06DA0121B9
:103AF000CDE9011015E0AAF10101E9E7002805DC94
:103B0000049901440491AAEB000102E0411C5145D3
:103B100000DD8A460499401A401C01904FF0004095
:103B20000290200704D40198504501DBCDF80480B1
:103B300000208DF84F0002980DF14F07B0F1004FB3
:103B400025D02B200E9002984FF0020800280CDAA6
:103B5000404202902D200E9007E00A210298FCF7C7
:103B60009DFC3031029007F8011DB8F10001A8F169
:103B70000108F2DC02980028EFD1791E0E98087037
:103B8000307800F0200040F0450007F8020D12A840
:103B9000C01B00F107081498007800B1012000EB69
:103BA0000A01019801EBE07105984144401A401E5A
:103BB0000590E00306D45B462146179A059800F06D
:103BC0005DF805441498007818B15A461799904743
:103BD0006D1CE00324D55B462146179A059800F03A
:103BE0004DF805441CE00498002807DBDDE90301DB
:103BF000884203DD0098405C179901E01799302056
:103C00005A469047049805F10105401C049001981C
:103C1000401E019004D12E205A46179990476D1CE2
:103C2000BAF10001AAF1010ADDDC05E017F8010B89
:103C30005A46179990476D1CB8F10001A8F1010888
:103C4000F4DC5B462146179A0598ABE62D00000090
:103C50002B000000200000002DE9F0410446002563
:103C60001E461746880404D405E039462020B04794
:103C70006D1C641EF9D52846BDE8F0812DE9F041A0
:103C8000044600251E469046C80301D5302700E0B3
:103C90002027880404D505E041463846B0476D1C0E
:103CA000641EF9D52846BDE8F0810A68531C0B60F4
:103CB000107070472DED068BB2B00024FDF75EFC4E
:103CC000FEF788FFFEF7C0FEFCF7EAFEFEF770FE87
:103CD000FEF722FFFCF79CFDE048FEF725F9FEF712
:103CE000F5FEDE48FEF742F90020DD49088008E0D5
:103CF000DCA1DE48FEF758FFD9480088401CD849AF
:103D00000880D74800882828F2DB4FF4FA63202285
:103D1000D749D648FEF7DCFB42F21070FDF70BFBEB
:103D2000D4A1D248FEF740FF4FF47A631422D3495E
:103D3000CE48FEF7CDFB4FF4FA60FDF7FCFA002009
:103D4000C74908800BE0CD48C5490988405C0A286E
:103D500000D108E0C2480088401CC1490880C04822
:103D600000880F28EFDB00BF002409E0BC48008872
:103D7000401C2044C149085CC1490855601CC4B2BC
:103D80000F2CF3DB0020BE49C873BE490860BE4853
:103D90000068406940F00200BB49096848610021A1
:103DA000B948FDF761F957E10025002006E0B74961
:103DB00011F8101001B10125411CC8B20628F6DB2C
:103DC000012D7BD10120B24908700025A348FEF7E0
:103DD000DCF80020AB490860AE480068FCF72FFB18
:103DE00041EC180BAC480068FCF729FB41EC190BBF
:103DF000AA480068FCF723FB41EC1A0BA8A03090FE
:103E00008DED2E8BA8A02C908DED2A9BA8A028903C
:103E10008DED26ABA8A2AF484089AFA3B149B1F957
:103E20000A10CDE92213CDE92402AFA2B148B0F9BE
:103E30000A00B1A3A7490989CDE91E13CDE92002E3
:103E4000A5A2A848B0F90800A7A3AA49B1F908108B
:103E5000CDE91A13CDE91C02ADA29E48C0889EA3ED
:103E6000A049B1F90610CDE91613CDE918029EA2BA
:103E7000A048B0F90600ADA396498988CDE9121390
:103E8000CDE9140294A29748B0F9040096A3994989
:103E9000B1F90410CDE90E13CDE91002AAA28D48A4
:103EA00040888DA38F49B1F90210CDE90A13CDE9FD
:103EB0000C028DA28F48B0F9020000E028E0A9A30F
:103EC00084490988CDE90613CDE9080282A2854814
:103ED000B0F9000084A38749B1F90010CDE90213BD
:103EE000CDE90402A6A06649ACA3AFA2CDE90010BB
:103EF000AE49AF48FFF76CFAFEF7C6FB5748FEF72E
:103F000035F800206249087000215F48FDF7ACF8E1
:103F10005C480068B0F5167F7DD101205C490870CF
:103F20005C480068FCF78BFA41EC180B5A480068B3
:103F3000FCF785FA41EC190B58480068FCF77FFA4A
:103F400041EC1A0B56A030908DED2E8B56A02C9084
:103F50008DED2A9B56A028908DED26AB56A25D488C
:103F600040895DA35F49B1F90A10CDE92213CDE97B
:103F700024025DA25F48B0F90A005FA35549098990
:103F8000CDE91E13CDE9200253A25648B0F908002E
:103F900055A35849B1F90810CDE91A13CDE91C020F
:103FA0005BA24C48C0884CA34E49B1F90610CDE93C
:103FB0001613CDE918024CA24E48B0F906005BA3D7
:103FC00044498988CDE91213CDE9140242A245483B
:103FD000B0F9040044A34749B1F90410CDE90E1328
:103FE000CDE9100258A23B4840883BA33D49B1F9B6
:103FF0000210CDE90A13CDE90C023BA23D48B0F90D
:10400000020058A333490988CDE90613CDE9080217
:1040100031A2344800E01EE0B0F9000032A3354977
:10402000B1F90010CDE90213CDE9040254A01449FE
:104030005AA35DA2CDE900105C495D48FFF7C8F9BD
:10404000FEF722FB00200F4908601149087000218B
:104050000D48FDF709F800BFA6E60000D0000020DB
:1040600000000020415445300A000000900000206C
:104070000009002041542B47534E0A00DC08002061
:10408000F0080020040000204C000020400900201F
:10409000080000203C0000203800002034000020F0
:1040A000227D7D0D0A000000222C227A223A220075
:1040B000222C2279223A2200227D2C226163636520
:1040C0006C65726174696F6E223A7B2278223A22A3
:1040D0000000000028000020222C226964223A22DD
:1040E000000000001C000020222C2274656D70224C
:1040F0003A22000010000020227D2C22736978747F
:10410000697265223A7B227072657373223A2200CB
:10411000227D2C226669766574697265223A7B225B
:104120007072657373223A2200000000227D2C22F7
:10413000666F757274697265223A7B22707265735C
:1041400073223A2200000000227D2C2274686972DA
:104150006474697265223A7B227072657373223AC5
:1041600022000000227D2C227365636F6E647469E7
:104170007265223A7B227072657373223A220000C4
:10418000222C22666972737474697265223A7B22EA
:104190007072657373223A220000000022696D6517
:1041A00069223A22000000007B000000084300085A
:1041B0000C01002026696D65693D31383631303398
:1041C00031323336300D0A000000000000000000DC
:1041D00000000000000000000000000000000000DF
:1041E00000000000000000000000000000000000CF
:1041F00000000000000000000000000000000000BF
:1042000000000000000000000000000000000000AE
:10421000000000000000000000000000000000009E
:10422000000000000000000000000000000000008E
:10423000000000000000000000000000000000007E
:10424000000000000000000000000000000000006E
:10425000000000000000000000000000000000005E
:10426000000000000000000000000000000000004E
:10427000000000000000000000000000000000003E
:104280000000000001020304060708090000000006
:104290000102030441542B48545450504152413DB3
:1042A0002255524C222C2268747470733A2F2F645A
:1042B00061746130312E666C6565747367757275F3
:1042C0002E636F6D2F6170692F746D732F3F617056
:1042D0007069643D65326362626233383664626578
:1042E0003431646262376561386261373236313742
:1042F00066326436266170703D746D735F6C756FE5
:104300006E6169220D0A00002573257325732573DC
:104310002564257325642573256425732564257319
:104320002564257325642573256425732564257309
:1043300025642573256425732564257325642573F9
:1043400025642573256425732564257325642573E9
:1043500025642573256425732566257325662573D5
:104360002566257300000000884300080000002037
:104370004C000000F8330008D44300084C00002033
:10438000440D000008340008000000000000000098
:10439000000000001027000064036403640364034A
:1043A00064036403190019001900190019001900A9
:1043B000FFFFFFFFFFFFFFFFFFFFFFFF0000000009
:1043C00000000000000000000000000000000000ED
:0443D0000024F400D1
:040000050800018965
:00000001FF
